{
  "_format": "hh-sol-artifact-1",
  "contractName": "Escrow",
  "sourceName": "contracts/Escrow.sol",
  "abi": [
    {
      "inputs": [
        {
          "internalType": "address",
          "name": "_splitPayout",
          "type": "address"
        },
        {
          "internalType": "address",
          "name": "_reputation",
          "type": "address"
        },
        {
          "internalType": "address",
          "name": "_referralRegistry",
          "type": "address"
        }
      ],
      "stateMutability": "nonpayable",
      "type": "constructor"
    },
    {
      "inputs": [
        {
          "internalType": "address",
          "name": "owner",
          "type": "address"
        }
      ],
      "name": "OwnableInvalidOwner",
      "type": "error"
    },
    {
      "inputs": [
        {
          "internalType": "address",
          "name": "account",
          "type": "address"
        }
      ],
      "name": "OwnableUnauthorizedAccount",
      "type": "error"
    },
    {
      "inputs": [],
      "name": "ReentrancyGuardReentrantCall",
      "type": "error"
    },
    {
      "anonymous": false,
      "inputs": [
        {
          "indexed": true,
          "internalType": "bytes32",
          "name": "orderId",
          "type": "bytes32"
        }
      ],
      "name": "DeliveryConfirmed",
      "type": "event"
    },
    {
      "anonymous": false,
      "inputs": [
        {
          "indexed": true,
          "internalType": "bytes32",
          "name": "orderId",
          "type": "bytes32"
        },
        {
          "indexed": true,
          "internalType": "address",
          "name": "initiator",
          "type": "address"
        }
      ],
      "name": "DisputeOpened",
      "type": "event"
    },
    {
      "anonymous": false,
      "inputs": [
        {
          "indexed": true,
          "internalType": "bytes32",
          "name": "orderId",
          "type": "bytes32"
        },
        {
          "indexed": true,
          "internalType": "address",
          "name": "buyer",
          "type": "address"
        },
        {
          "indexed": true,
          "internalType": "address",
          "name": "vendor",
          "type": "address"
        },
        {
          "indexed": false,
          "internalType": "address",
          "name": "reseller",
          "type": "address"
        },
        {
          "indexed": false,
          "internalType": "uint256",
          "name": "amount",
          "type": "uint256"
        }
      ],
      "name": "EscrowDeposited",
      "type": "event"
    },
    {
      "anonymous": false,
      "inputs": [
        {
          "indexed": true,
          "internalType": "bytes32",
          "name": "orderId",
          "type": "bytes32"
        },
        {
          "indexed": true,
          "internalType": "address",
          "name": "buyer",
          "type": "address"
        },
        {
          "indexed": false,
          "internalType": "uint256",
          "name": "amount",
          "type": "uint256"
        },
        {
          "indexed": false,
          "internalType": "string",
          "name": "reason",
          "type": "string"
        }
      ],
      "name": "EscrowRefunded",
      "type": "event"
    },
    {
      "anonymous": false,
      "inputs": [
        {
          "indexed": true,
          "internalType": "bytes32",
          "name": "orderId",
          "type": "bytes32"
        },
        {
          "indexed": false,
          "internalType": "uint256",
          "name": "releaseAmount",
          "type": "uint256"
        }
      ],
      "name": "EscrowReleased",
      "type": "event"
    },
    {
      "anonymous": false,
      "inputs": [
        {
          "indexed": false,
          "internalType": "uint256",
          "name": "newAmount",
          "type": "uint256"
        }
      ],
      "name": "MinOrderAmountUpdated",
      "type": "event"
    },
    {
      "anonymous": false,
      "inputs": [
        {
          "indexed": true,
          "internalType": "address",
          "name": "previousOwner",
          "type": "address"
        },
        {
          "indexed": true,
          "internalType": "address",
          "name": "newOwner",
          "type": "address"
        }
      ],
      "name": "OwnershipTransferred",
      "type": "event"
    },
    {
      "inputs": [
        {
          "internalType": "bytes32",
          "name": "orderId",
          "type": "bytes32"
        }
      ],
      "name": "confirmDelivery",
      "outputs": [],
      "stateMutability": "nonpayable",
      "type": "function"
    },
    {
      "inputs": [
        {
          "internalType": "bytes32",
          "name": "orderId",
          "type": "bytes32"
        },
        {
          "internalType": "address",
          "name": "vendor",
          "type": "address"
        },
        {
          "internalType": "address",
          "name": "reseller",
          "type": "address"
        }
      ],
      "name": "deposit",
      "outputs": [],
      "stateMutability": "payable",
      "type": "function"
    },
    {
      "inputs": [
        {
          "internalType": "bytes32",
          "name": "orderId",
          "type": "bytes32"
        },
        {
          "internalType": "string",
          "name": "reason",
          "type": "string"
        }
      ],
      "name": "dispute",
      "outputs": [],
      "stateMutability": "nonpayable",
      "type": "function"
    },
    {
      "inputs": [
        {
          "internalType": "bytes32",
          "name": "orderId",
          "type": "bytes32"
        }
      ],
      "name": "getOrder",
      "outputs": [
        {
          "components": [
            {
              "internalType": "address",
              "name": "buyer",
              "type": "address"
            },
            {
              "internalType": "address",
              "name": "vendor",
              "type": "address"
            },
            {
              "internalType": "address",
              "name": "reseller",
              "type": "address"
            },
            {
              "internalType": "uint256",
              "name": "amount",
              "type": "uint256"
            },
            {
              "internalType": "enum Escrow.OrderStatus",
              "name": "status",
              "type": "uint8"
            },
            {
              "internalType": "uint256",
              "name": "depositedAt",
              "type": "uint256"
            },
            {
              "internalType": "uint256",
              "name": "deliveredAt",
              "type": "uint256"
            },
            {
              "internalType": "uint256",
              "name": "releasedAt",
              "type": "uint256"
            },
            {
              "internalType": "string",
              "name": "refundReason",
              "type": "string"
            }
          ],
          "internalType": "struct Escrow.Order",
          "name": "",
          "type": "tuple"
        }
      ],
      "stateMutability": "view",
      "type": "function"
    },
    {
      "inputs": [
        {
          "internalType": "bytes32",
          "name": "orderId",
          "type": "bytes32"
        }
      ],
      "name": "getOrderStatus",
      "outputs": [
        {
          "internalType": "enum Escrow.OrderStatus",
          "name": "",
          "type": "uint8"
        }
      ],
      "stateMutability": "view",
      "type": "function"
    },
    {
      "inputs": [],
      "name": "minOrderAmount",
      "outputs": [
        {
          "internalType": "uint256",
          "name": "",
          "type": "uint256"
        }
      ],
      "stateMutability": "view",
      "type": "function"
    },
    {
      "inputs": [
        {
          "internalType": "bytes32",
          "name": "",
          "type": "bytes32"
        }
      ],
      "name": "orders",
      "outputs": [
        {
          "internalType": "address",
          "name": "buyer",
          "type": "address"
        },
        {
          "internalType": "address",
          "name": "vendor",
          "type": "address"
        },
        {
          "internalType": "address",
          "name": "reseller",
          "type": "address"
        },
        {
          "internalType": "uint256",
          "name": "amount",
          "type": "uint256"
        },
        {
          "internalType": "enum Escrow.OrderStatus",
          "name": "status",
          "type": "uint8"
        },
        {
          "internalType": "uint256",
          "name": "depositedAt",
          "type": "uint256"
        },
        {
          "internalType": "uint256",
          "name": "deliveredAt",
          "type": "uint256"
        },
        {
          "internalType": "uint256",
          "name": "releasedAt",
          "type": "uint256"
        },
        {
          "internalType": "string",
          "name": "refundReason",
          "type": "string"
        }
      ],
      "stateMutability": "view",
      "type": "function"
    },
    {
      "inputs": [],
      "name": "owner",
      "outputs": [
        {
          "internalType": "address",
          "name": "",
          "type": "address"
        }
      ],
      "stateMutability": "view",
      "type": "function"
    },
    {
      "inputs": [],
      "name": "referralRegistry",
      "outputs": [
        {
          "internalType": "contract ReferralRegistry",
          "name": "",
          "type": "address"
        }
      ],
      "stateMutability": "view",
      "type": "function"
    },
    {
      "inputs": [
        {
          "internalType": "bytes32",
          "name": "orderId",
          "type": "bytes32"
        },
        {
          "internalType": "string",
          "name": "reason",
          "type": "string"
        }
      ],
      "name": "refund",
      "outputs": [],
      "stateMutability": "nonpayable",
      "type": "function"
    },
    {
      "inputs": [
        {
          "internalType": "bytes32",
          "name": "orderId",
          "type": "bytes32"
        }
      ],
      "name": "release",
      "outputs": [],
      "stateMutability": "nonpayable",
      "type": "function"
    },
    {
      "inputs": [],
      "name": "renounceOwnership",
      "outputs": [],
      "stateMutability": "nonpayable",
      "type": "function"
    },
    {
      "inputs": [],
      "name": "reputation",
      "outputs": [
        {
          "internalType": "contract Reputation",
          "name": "",
          "type": "address"
        }
      ],
      "stateMutability": "view",
      "type": "function"
    },
    {
      "inputs": [
        {
          "internalType": "uint256",
          "name": "amount",
          "type": "uint256"
        }
      ],
      "name": "setMinOrderAmount",
      "outputs": [],
      "stateMutability": "nonpayable",
      "type": "function"
    },
    {
      "inputs": [],
      "name": "splitPayout",
      "outputs": [
        {
          "internalType": "contract SplitPayout",
          "name": "",
          "type": "address"
        }
      ],
      "stateMutability": "view",
      "type": "function"
    },
    {
      "inputs": [
        {
          "internalType": "address",
          "name": "newOwner",
          "type": "address"
        }
      ],
      "name": "transferOwnership",
      "outputs": [],
      "stateMutability": "nonpayable",
      "type": "function"
    },
    {
      "stateMutability": "payable",
      "type": "receive"
    }
  ],
  "bytecode": "0x6080604052662386f26fc100006005553480156200001b575f80fd5b506040516200192e3803806200192e8339810160408190526200003e9162000233565b33806200006557604051631e4fbdf760e01b81525f60048201526024015b60405180910390fd5b6200007081620001c8565b5060017f9b779b17422d0df92223018b32b4d1fa46e071723d6817e2486d003becc55f00556001600160a01b038316620000ed5760405162461bcd60e51b815260206004820152601460248201527f496e76616c69642073706c6974207061796f757400000000000000000000000060448201526064016200005c565b6001600160a01b0382166200013a5760405162461bcd60e51b815260206004820152601260248201527124b73b30b634b2103932b83aba30ba34b7b760711b60448201526064016200005c565b6001600160a01b038116620001855760405162461bcd60e51b815260206004820152601060248201526f496e76616c696420726567697374727960801b60448201526064016200005c565b600180546001600160a01b039485166001600160a01b0319918216179091556002805493851693821693909317909255600380549190931691161790556200027a565b5f80546001600160a01b038381166001600160a01b0319831681178455604051919092169283917f8be0079c531659141344cd1fd0a4f28419497f9722a3daafe3b4186f6b6457e09190a35050565b80516001600160a01b03811681146200022e575f80fd5b919050565b5f805f6060848603121562000246575f80fd5b620002518462000217565b9250620002616020850162000217565b9150620002716040850162000217565b90509250925092565b6116a680620002885f395ff3fe6080604052600436106100f2575f3560e01c806384146b9d11610087578063c52164c611610057578063c52164c6146102c0578063c84ab1b3146102df578063e6b52deb146102fe578063f2fde38b1461031d575f80fd5b806384146b9d146102325780638da5cb5b146102515780639c3f1e901461026d578063a3b8ef04146102a1575f80fd5b806367d42a8b116100c257806367d42a8b146101cb578063715018a6146101ec57806374950ffd146102005780637f8698e61461021f575f80fd5b806346423aa7146100fd57806346b62c4a146101455780634e627e62146101685780635778472a1461019f575f80fd5b366100f957005b5f80fd5b348015610108575f80fd5b5061012f61011736600461119a565b5f908152600460208190526040909120015460ff1690565b60405161013c91906111e5565b60405180910390f35b348015610150575f80fd5b5061015a60055481565b60405190815260200161013c565b348015610173575f80fd5b50600354610187906001600160a01b031681565b6040516001600160a01b03909116815260200161013c565b3480156101aa575f80fd5b506101be6101b936600461119a565b61033c565b60405161013c9190611246565b3480156101d6575f80fd5b506101ea6101e536600461119a565b6104c0565b005b3480156101f7575f80fd5b506101ea610787565b34801561020b575f80fd5b506101ea61021a36600461119a565b61079a565b6101ea61022d366004611310565b6108ee565b34801561023d575f80fd5b506101ea61024c366004611349565b610a93565b34801561025c575f80fd5b505f546001600160a01b0316610187565b348015610278575f80fd5b5061028c61028736600461119a565b610c5c565b60405161013c999897969594939291906113be565b3480156102ac575f80fd5b506101ea6102bb36600461119a565b610d41565b3480156102cb575f80fd5b50600254610187906001600160a01b031681565b3480156102ea575f80fd5b506101ea6102f9366004611349565b610d84565b348015610309575f80fd5b50600154610187906001600160a01b031681565b348015610328575f80fd5b506101ea610337366004611427565b611098565b61038760408051610120810182525f808252602082018190529181018290526060810182905290608082019081526020015f81526020015f81526020015f8152602001606081525090565b5f8281526004602081815260409283902083516101208101855281546001600160a01b03908116825260018301548116938201939093526002820154909216938201939093526003830154606082015282820154909291608084019160ff16908111156103f6576103f66111b1565b6004811115610407576104076111b1565b815260200160058201548152602001600682015481526020016007820154815260200160088201805461043990611447565b80601f016020809104026020016040519081016040528092919081815260200182805461046590611447565b80156104b05780601f10610487576101008083540402835291602001916104b0565b820191905f5260205f20905b81548152906001019060200180831161049357829003601f168201915b5050505050815250509050919050565b5f8181526004602052604090205481906001600160a01b03166104fe5760405162461bcd60e51b81526004016104f59061147f565b60405180910390fd5b6105066110d5565b5f8281526004602052604090206007810154156105585760405162461bcd60e51b815260206004820152601060248201526f105b1c9958591e481c995b19585cd95960821b60448201526064016104f5565b600160048083015460ff1690811115610573576105736111b1565b146105b45760405162461bcd60e51b8152602060048201526011602482015270135d5cdd0818994819195b1a5d995c9959607a1b60448201526064016104f5565b80546001600160a01b03163314806105d557505f546001600160a01b031633145b6106175760405162461bcd60e51b815260206004820152601360248201527227b7363c90313abcb2b91037b91037bbb732b960691b60448201526064016104f5565b60048101805460ff19166002908117909155426007830155600382015460018054928401549084015460405160248101889052604481018490526001600160a01b039283166064820152908216608482015291925f92911690839060a40160408051601f198184030181529181526020820180516001600160e01b03166309e1850d60e41b179052516106aa91906114a8565b5f6040518083038185875af1925050503d805f81146106e4576040519150601f19603f3d011682016040523d82523d5f602084013e6106e9565b606091505b50509050806107305760405162461bcd60e51b815260206004820152601360248201527214dc1b1a5d081c185e5bdd5d0819985a5b1959606a1b60448201526064016104f5565b847f9410e7c5b50451e4b5bd5ce113fd48abebd7070eb9d080df08b115b7cdc416508360405161076291815260200190565b60405180910390a250505061078360015f8051602061165183398151915255565b5050565b61078f6110f0565b6107985f61111c565b565b5f8181526004602052604090205481906001600160a01b03166107cf5760405162461bcd60e51b81526004016104f59061147f565b5f8281526004602052604090205482906001600160a01b031633146108235760405162461bcd60e51b815260206004820152600a60248201526927b7363c90313abcb2b960b11b60448201526064016104f5565b61082b6110d5565b5f8381526004602052604081209060048083015460ff1690811115610852576108526111b1565b146108935760405162461bcd60e51b8152602060048201526011602482015270105b1c9958591e4818dbdb999a5c9b5959607a1b60448201526064016104f5565b60048101805460ff1916600117905542600682015560405184907fdb29e8c4c68608f99578bba0c9a53fd67d6b80c45f4a0e37246832311c8dba54905f90a2506108e960015f8051602061165183398151915255565b505050565b6108f66110d5565b60055434101561093b5760405162461bcd60e51b815260206004820152601060248201526f105b5bdd5b9d081d1bdbc81cdb585b1b60821b60448201526064016104f5565b6001600160a01b0382166109825760405162461bcd60e51b815260206004820152600e60248201526d24b73b30b634b2103b32b73237b960911b60448201526064016104f5565b5f838152600460205260409020546001600160a01b0316156109d55760405162461bcd60e51b815260206004820152600c60248201526b4f726465722065786973747360a01b60448201526064016104f5565b5f8381526004602081815260409283902080546001600160a01b03199081163390811783556001830180546001600160a01b038a81169185168217909255600285018054928a169290941682179093553460038501819055958401805460ff19169055426005850155865190815293840194909452909390929187917f6ee02fbd56438a07016b21b537ed9393365b8596eb8fecae3547e72a843486d5910160405180910390a4506108e960015f8051602061165183398151915255565b5f8381526004602052604090205483906001600160a01b0316610ac85760405162461bcd60e51b81526004016104f59061147f565b5f8481526004602052604090205484906001600160a01b0316331480610b0657505f818152600460205260409020600101546001600160a01b031633145b610b495760405162461bcd60e51b815260206004820152601460248201527327b7363c90313abcb2b91037b9103b32b73237b960611b60448201526064016104f5565b5f858152600460205260409020600260048083015460ff1690811115610b7157610b716111b1565b03610baf5760405162461bcd60e51b815260206004820152600e60248201526d43616e6e6f74206469737075746560901b60448201526064016104f5565b600360048083015460ff1690811115610bca57610bca6111b1565b03610c085760405162461bcd60e51b815260206004820152600e60248201526d43616e6e6f74206469737075746560901b60448201526064016104f5565b6004818101805460ff1916909117905560088101610c2785878361151b565b50604051339087907fe7b614d99462ab012c8191c9348164cd62a4aec6d211f42371fd1f0759e5c220905f90a3505050505050565b600460208190525f91825260409091208054600182015460028301546003840154948401546005850154600686015460078701546008880180546001600160a01b039889169a97891699969098169760ff90951695939492939192610cc090611447565b80601f0160208091040260200160405190810160405280929190818152602001828054610cec90611447565b8015610d375780601f10610d0e57610100808354040283529160200191610d37565b820191905f5260205f20905b815481529060010190602001808311610d1a57829003601f168201915b5050505050905089565b610d496110f0565b60058190556040518181527f100ba950bffaa46f7bc36fc0fa5170ab11ad6028cede29afd48cdee8a2b78abc9060200160405180910390a150565b5f8381526004602052604090205483906001600160a01b0316610db95760405162461bcd60e51b81526004016104f59061147f565b5f8481526004602052604090205484906001600160a01b0316331480610df757505f818152600460205260409020600101546001600160a01b031633145b610e3a5760405162461bcd60e51b815260206004820152601460248201527327b7363c90313abcb2b91037b9103b32b73237b960611b60448201526064016104f5565b610e426110d5565b5f8581526004602052604081209060048083015460ff1690811115610e6957610e696111b1565b1480610e8d5750600160048083015460ff1690811115610e8b57610e8b6111b1565b145b610ec95760405162461bcd60e51b815260206004820152600d60248201526c10d85b9b9bdd081c99599d5b99609a1b60448201526064016104f5565b600781015415610f0e5760405162461bcd60e51b815260206004820152601060248201526f105b1c9958591e481c995b19585cd95960821b60448201526064016104f5565b60048101805460ff1916600317905560088101610f2c85878361151b565b50805460038201546040515f926001600160a01b031691908381818185875af1925050503d805f8114610f7a576040519150601f19603f3d011682016040523d82523d5f602084013e610f7f565b606091505b5050905080610fc05760405162461bcd60e51b815260206004820152600d60248201526c1499599d5b990819985a5b1959609a1b60448201526064016104f5565b6002546001838101546040516382e8218960e01b81526001600160a01b03938416936382e8218993610ffc93909116918b908b906004016115fd565b5f604051808303815f87803b158015611013575f80fd5b505af1158015611025573d5f803e3d5ffd5b5050835460038501546040516001600160a01b0390921693508a92507f8c90de59f24c939b7e8e5f2914387cdc80468113ce3e748bc59d8376a9ee5bd19161107191908b908b9061162e565b60405180910390a3505061109160015f8051602061165183398151915255565b5050505050565b6110a06110f0565b6001600160a01b0381166110c957604051631e4fbdf760e01b81525f60048201526024016104f5565b6110d28161111c565b50565b6110dd61116b565b60025f8051602061165183398151915255565b5f546001600160a01b031633146107985760405163118cdaa760e01b81523360048201526024016104f5565b5f80546001600160a01b038381166001600160a01b0319831681178455604051919092169283917f8be0079c531659141344cd1fd0a4f28419497f9722a3daafe3b4186f6b6457e09190a35050565b5f805160206116518339815191525460020361079857604051633ee5aeb560e01b815260040160405180910390fd5b5f602082840312156111aa575f80fd5b5035919050565b634e487b7160e01b5f52602160045260245ffd5b600581106111e157634e487b7160e01b5f52602160045260245ffd5b9052565b602081016111f382846111c5565b92915050565b5f5b838110156112135781810151838201526020016111fb565b50505f910152565b5f81518084526112328160208601602086016111f9565b601f01601f19169290920160200192915050565b602081526112606020820183516001600160a01b03169052565b5f602083015161127b60408401826001600160a01b03169052565b5060408301516001600160a01b0381166060840152506060830151608083015260808301516112ad60a08401826111c5565b5060a083015160c083015260c083015160e083015260e08301516101008181850152808501519150506101208081850152506112ed61014084018261121b565b949350505050565b80356001600160a01b038116811461130b575f80fd5b919050565b5f805f60608486031215611322575f80fd5b83359250611332602085016112f5565b9150611340604085016112f5565b90509250925092565b5f805f6040848603121561135b575f80fd5b83359250602084013567ffffffffffffffff80821115611379575f80fd5b818601915086601f83011261138c575f80fd5b81358181111561139a575f80fd5b8760208285010111156113ab575f80fd5b6020830194508093505050509250925092565b6001600160a01b038a81168252898116602083015288166040820152606081018790525f6101206113f260808401896111c5565b8660a08401528560c08401528460e0840152806101008401526114178184018561121b565b9c9b505050505050505050505050565b5f60208284031215611437575f80fd5b611440826112f5565b9392505050565b600181811c9082168061145b57607f821691505b60208210810361147957634e487b7160e01b5f52602260045260245ffd5b50919050565b6020808252600f908201526e13dc99195c881b9bdd08199bdd5b99608a1b604082015260600190565b5f82516114b98184602087016111f9565b9190910192915050565b634e487b7160e01b5f52604160045260245ffd5b601f8211156108e957805f5260205f20601f840160051c810160208510156114fc5750805b601f840160051c820191505b81811015611091575f8155600101611508565b67ffffffffffffffff831115611533576115336114c3565b611547836115418354611447565b836114d7565b5f601f841160018114611578575f85156115615750838201355b5f19600387901b1c1916600186901b178355611091565b5f83815260208120601f198716915b828110156115a75786850135825560209485019460019092019101611587565b50868210156115c3575f1960f88860031b161c19848701351681555b505060018560011b0183555050505050565b81835281816020850137505f828201602090810191909152601f909101601f19169091010190565b60018060a01b0385168152836020820152606060408201525f6116246060830184866115d5565b9695505050505050565b838152604060208201525f6116476040830184866115d5565b9594505050505056fe9b779b17422d0df92223018b32b4d1fa46e071723d6817e2486d003becc55f00a26469706673582212209002c9afa5a6fc68edd40c9c5ccef45414b52dc2d3112df44f4a6615e967415764736f6c63430008180033",
  "linkReferences": {},
  "deployedLinkReferences": {}
}