{
  "_format": "hh-sol-artifact-1",
  "contractName": "Reputation",
  "sourceName": "contracts/Reputation.sol",
  "abi": [
    {
      "inputs": [],
      "stateMutability": "nonpayable",
      "type": "constructor"
    },
    {
      "inputs": [
        {
          "internalType": "address",
          "name": "owner",
          "type": "address"
        }
      ],
      "name": "OwnableInvalidOwner",
      "type": "error"
    },
    {
      "inputs": [
        {
          "internalType": "address",
          "name": "account",
          "type": "address"
        }
      ],
      "name": "OwnableUnauthorizedAccount",
      "type": "error"
    },
    {
      "anonymous": false,
      "inputs": [
        {
          "indexed": true,
          "internalType": "address",
          "name": "caller",
          "type": "address"
        },
        {
          "indexed": false,
          "internalType": "bool",
          "name": "authorized",
          "type": "bool"
        }
      ],
      "name": "AuthorizationChanged",
      "type": "event"
    },
    {
      "anonymous": false,
      "inputs": [
        {
          "indexed": true,
          "internalType": "address",
          "name": "vendor",
          "type": "address"
        },
        {
          "indexed": false,
          "internalType": "bool",
          "name": "isGenuine",
          "type": "bool"
        }
      ],
      "name": "GenuinessStatusChanged",
      "type": "event"
    },
    {
      "anonymous": false,
      "inputs": [
        {
          "indexed": true,
          "internalType": "address",
          "name": "previousOwner",
          "type": "address"
        },
        {
          "indexed": true,
          "internalType": "address",
          "name": "newOwner",
          "type": "address"
        }
      ],
      "name": "OwnershipTransferred",
      "type": "event"
    },
    {
      "anonymous": false,
      "inputs": [
        {
          "indexed": true,
          "internalType": "address",
          "name": "vendor",
          "type": "address"
        },
        {
          "indexed": false,
          "internalType": "uint256",
          "name": "amount",
          "type": "uint256"
        },
        {
          "indexed": false,
          "internalType": "string",
          "name": "reason",
          "type": "string"
        },
        {
          "indexed": false,
          "internalType": "int256",
          "name": "newScore",
          "type": "int256"
        }
      ],
      "name": "ReputationCredited",
      "type": "event"
    },
    {
      "anonymous": false,
      "inputs": [
        {
          "indexed": true,
          "internalType": "address",
          "name": "vendor",
          "type": "address"
        },
        {
          "indexed": false,
          "internalType": "uint256",
          "name": "amount",
          "type": "uint256"
        },
        {
          "indexed": false,
          "internalType": "string",
          "name": "reason",
          "type": "string"
        },
        {
          "indexed": false,
          "internalType": "int256",
          "name": "newScore",
          "type": "int256"
        }
      ],
      "name": "ReputationDebited",
      "type": "event"
    },
    {
      "anonymous": false,
      "inputs": [
        {
          "indexed": false,
          "internalType": "uint256",
          "name": "newThreshold",
          "type": "uint256"
        }
      ],
      "name": "ThresholdUpdated",
      "type": "event"
    },
    {
      "inputs": [
        {
          "internalType": "address",
          "name": "",
          "type": "address"
        },
        {
          "internalType": "uint256",
          "name": "",
          "type": "uint256"
        }
      ],
      "name": "auditLog",
      "outputs": [
        {
          "internalType": "int256",
          "name": "delta",
          "type": "int256"
        },
        {
          "internalType": "string",
          "name": "reason",
          "type": "string"
        },
        {
          "internalType": "uint256",
          "name": "timestamp",
          "type": "uint256"
        }
      ],
      "stateMutability": "view",
      "type": "function"
    },
    {
      "inputs": [
        {
          "internalType": "address",
          "name": "",
          "type": "address"
        }
      ],
      "name": "authorizedCallers",
      "outputs": [
        {
          "internalType": "bool",
          "name": "",
          "type": "bool"
        }
      ],
      "stateMutability": "view",
      "type": "function"
    },
    {
      "inputs": [
        {
          "internalType": "address",
          "name": "vendor",
          "type": "address"
        },
        {
          "internalType": "uint256",
          "name": "amount",
          "type": "uint256"
        },
        {
          "internalType": "string",
          "name": "reason",
          "type": "string"
        }
      ],
      "name": "creditReputation",
      "outputs": [],
      "stateMutability": "nonpayable",
      "type": "function"
    },
    {
      "inputs": [
        {
          "internalType": "address",
          "name": "vendor",
          "type": "address"
        },
        {
          "internalType": "uint256",
          "name": "amount",
          "type": "uint256"
        },
        {
          "internalType": "string",
          "name": "reason",
          "type": "string"
        }
      ],
      "name": "debitReputation",
      "outputs": [],
      "stateMutability": "nonpayable",
      "type": "function"
    },
    {
      "inputs": [
        {
          "internalType": "address",
          "name": "vendor",
          "type": "address"
        },
        {
          "internalType": "uint256",
          "name": "index",
          "type": "uint256"
        }
      ],
      "name": "getAuditLogEntry",
      "outputs": [
        {
          "components": [
            {
              "internalType": "int256",
              "name": "delta",
              "type": "int256"
            },
            {
              "internalType": "string",
              "name": "reason",
              "type": "string"
            },
            {
              "internalType": "uint256",
              "name": "timestamp",
              "type": "uint256"
            }
          ],
          "internalType": "struct Reputation.ReputationEntry",
          "name": "",
          "type": "tuple"
        }
      ],
      "stateMutability": "view",
      "type": "function"
    },
    {
      "inputs": [
        {
          "internalType": "address",
          "name": "vendor",
          "type": "address"
        }
      ],
      "name": "getAuditLogLength",
      "outputs": [
        {
          "internalType": "uint256",
          "name": "",
          "type": "uint256"
        }
      ],
      "stateMutability": "view",
      "type": "function"
    },
    {
      "inputs": [
        {
          "internalType": "address",
          "name": "vendor",
          "type": "address"
        }
      ],
      "name": "getReputation",
      "outputs": [
        {
          "internalType": "int256",
          "name": "",
          "type": "int256"
        }
      ],
      "stateMutability": "view",
      "type": "function"
    },
    {
      "inputs": [
        {
          "internalType": "address",
          "name": "vendor",
          "type": "address"
        }
      ],
      "name": "isGenuine",
      "outputs": [
        {
          "internalType": "bool",
          "name": "",
          "type": "bool"
        }
      ],
      "stateMutability": "view",
      "type": "function"
    },
    {
      "inputs": [],
      "name": "maxReputationCap",
      "outputs": [
        {
          "internalType": "uint256",
          "name": "",
          "type": "uint256"
        }
      ],
      "stateMutability": "view",
      "type": "function"
    },
    {
      "inputs": [],
      "name": "minReputationThreshold",
      "outputs": [
        {
          "internalType": "uint256",
          "name": "",
          "type": "uint256"
        }
      ],
      "stateMutability": "view",
      "type": "function"
    },
    {
      "inputs": [],
      "name": "owner",
      "outputs": [
        {
          "internalType": "address",
          "name": "",
          "type": "address"
        }
      ],
      "stateMutability": "view",
      "type": "function"
    },
    {
      "inputs": [],
      "name": "renounceOwnership",
      "outputs": [],
      "stateMutability": "nonpayable",
      "type": "function"
    },
    {
      "inputs": [
        {
          "internalType": "address",
          "name": "",
          "type": "address"
        }
      ],
      "name": "reputation",
      "outputs": [
        {
          "internalType": "int256",
          "name": "",
          "type": "int256"
        }
      ],
      "stateMutability": "view",
      "type": "function"
    },
    {
      "inputs": [
        {
          "internalType": "address",
          "name": "caller",
          "type": "address"
        },
        {
          "internalType": "bool",
          "name": "authorized",
          "type": "bool"
        }
      ],
      "name": "setAuthorized",
      "outputs": [],
      "stateMutability": "nonpayable",
      "type": "function"
    },
    {
      "inputs": [
        {
          "internalType": "uint256",
          "name": "threshold",
          "type": "uint256"
        }
      ],
      "name": "setMinReputationThreshold",
      "outputs": [],
      "stateMutability": "nonpayable",
      "type": "function"
    },
    {
      "inputs": [
        {
          "internalType": "address",
          "name": "newOwner",
          "type": "address"
        }
      ],
      "name": "transferOwnership",
      "outputs": [],
      "stateMutability": "nonpayable",
      "type": "function"
    }
  ],
  "bytecode": "0x6080604052600a6004556103e860055534801561001a575f80fd5b50338061004057604051631e4fbdf760e01b81525f600482015260240160405180910390fd5b6100498161004f565b5061009e565b5f80546001600160a01b038381166001600160a01b0319831681178455604051919092169283917f8be0079c531659141344cd1fd0a4f28419497f9722a3daafe3b4186f6b6457e09190a35050565b61101b806100ab5f395ff3fe608060405234801561000f575f80fd5b50600436106100fb575f3560e01c80638da5cb5b11610093578063f2fde38b11610063578063f2fde38b14610242578063f3bb6bb114610255578063fa7ccb4614610284578063fc770305146102a6575f80fd5b80638da5cb5b146101d85780639c89a0e2146101f2578063a4a6b4761461021a578063b9f7945114610223575f80fd5b806375c7466b116100ce57806375c7466b1461018957806375f090d71461019257806382e82189146101a557806388afdd02146101b8575f80fd5b8063536fff6c146100ff5780636ea6b9d014610136578063711bf9b21461016c578063715018a614610181575b5f80fd5b61012161010d366004610c02565b60036020525f908152604090205460ff1681565b60405190151581526020015b60405180910390f35b61015e610144366004610c02565b6001600160a01b03165f9081526002602052604090205490565b60405190815260200161012d565b61017f61017a366004610c22565b6102b9565b005b61017f61031f565b61015e60055481565b61017f6101a0366004610c5b565b610332565b61017f6101b3366004610c72565b610375565b6101cb6101c6366004610cf2565b61064a565b60405161012d9190610d5d565b5f546040516001600160a01b03909116815260200161012d565b61015e610200366004610c02565b6001600160a01b03165f9081526001602052604090205490565b61015e60045481565b61015e610231366004610c02565b60016020525f908152604090205481565b61017f610250366004610c02565b6107b3565b610121610263366004610c02565b6004546001600160a01b039091165f90815260016020526040902054121590565b610297610292366004610cf2565b6107f0565b60405161012d93929190610d98565b61017f6102b4366004610c72565b6108b6565b6102c1610b6c565b6001600160a01b0382165f81815260036020908152604091829020805460ff191685151590811790915591519182527f5fe3a0cb9aeae856eac34445ace9544f3e15c21fa6f9bffeca60d662a690ca1b910160405180910390a25050565b610327610b6c565b6103305f610b98565b565b61033a610b6c565b60048190556040518181527fadfa8ecb21b6962ebcd0adbd9ab985b7b4c5b5eb3b0dead683171565c7bfe1719060200160405180910390a150565b335f9081526003602052604090205460ff168061039b57505f546001600160a01b031633145b6103dd5760405162461bcd60e51b815260206004820152600e60248201526d139bdd08185d5d1a1bdc9a5e995960921b60448201526064015b60405180910390fd5b6001600160a01b0384166104245760405162461bcd60e51b815260206004820152600e60248201526d24b73b30b634b2103b32b73237b960911b60448201526064016103d4565b5f831161046d5760405162461bcd60e51b8152602060048201526017602482015276416d6f756e74206d75737420626520706f73697469766560481b60448201526064016103d4565b5f61047784610dd4565b6001600160a01b0386165f908152600160205260408120549192509061049e908390610dee565b90505f8112156104ab57505f5b6001600160a01b0386165f908152600160205260408120546104cd9083610e15565b6001600160a01b0388165f908152600160209081526040808320869055600282529182902082516060810184528481528351601f8a0184900484028101840190945288845293945092918282019189908990819084018382808284375f9201829052509385525050426020938401525083546001818101865594825290829020835160039092020190815590820151919290919082019061056e9082610ed3565b506040918201516002909101556004546001600160a01b0389165f9081526001602052918220546105a0908490610e15565b60045491131591508312158082146105f857886001600160a01b03167fbf0f41fab56a879e4af34a81ad3b01fc96894967122ec0ddd6509ea7c130e4a2826040516105ef911515815260200190565b60405180910390a25b886001600160a01b03167f6e3d03341e936210476805cbadd1105fa1e8cd12ade6c69d6eca657716634499898989886040516106379493929190610f93565b60405180910390a2505050505050505050565b61066c60405180606001604052805f8152602001606081526020015f81525090565b6001600160a01b0383165f9081526002602052604090205482106106c85760405162461bcd60e51b8152602060048201526013602482015272496e646578206f7574206f6620626f756e647360681b60448201526064016103d4565b6001600160a01b0383165f9081526002602052604090208054839081106106f1576106f1610fd1565b905f5260205f2090600302016040518060600160405290815f820154815260200160018201805461072190610e4f565b80601f016020809104026020016040519081016040528092919081815260200182805461074d90610e4f565b80156107985780601f1061076f57610100808354040283529160200191610798565b820191905f5260205f20905b81548152906001019060200180831161077b57829003601f168201915b50505050508152602001600282015481525050905092915050565b6107bb610b6c565b6001600160a01b0381166107e457604051631e4fbdf760e01b81525f60048201526024016103d4565b6107ed81610b98565b50565b6002602052815f5260405f208181548110610809575f80fd5b905f5260205f2090600302015f9150915050805f01549080600101805461082f90610e4f565b80601f016020809104026020016040519081016040528092919081815260200182805461085b90610e4f565b80156108a65780601f1061087d576101008083540402835291602001916108a6565b820191905f5260205f20905b81548152906001019060200180831161088957829003601f168201915b5050505050908060020154905083565b335f9081526003602052604090205460ff16806108dc57505f546001600160a01b031633145b6109195760405162461bcd60e51b815260206004820152600e60248201526d139bdd08185d5d1a1bdc9a5e995960921b60448201526064016103d4565b6001600160a01b0384166109605760405162461bcd60e51b815260206004820152600e60248201526d24b73b30b634b2103b32b73237b960911b60448201526064016103d4565b5f83116109a95760405162461bcd60e51b8152602060048201526017602482015276416d6f756e74206d75737420626520706f73697469766560481b60448201526064016103d4565b6001600160a01b0384165f908152600160205260408120548491906109cf908390610dee565b90506005548113156109e057506005545b6001600160a01b0386165f90815260016020526040812054610a029083610e15565b6001600160a01b0388165f908152600160209081526040808320869055600282529182902082516060810184528481528351601f8a0184900484028101840190945288845293945092918282019189908990819084018382808284375f92018290525093855250504260209384015250835460018181018655948252908290208351600390920201908155908201519192909190820190610aa39082610ed3565b506040918201516002909101556004546001600160a01b0389165f908152600160205291822054610ad5908490610e15565b6004549113159150831215808214610b2d57886001600160a01b03167fbf0f41fab56a879e4af34a81ad3b01fc96894967122ec0ddd6509ea7c130e4a282604051610b24911515815260200190565b60405180910390a25b886001600160a01b03167f7fda25ea0070f264665992e89e9f992793a5b0146dcaa0ceb9327bf445ada107898989886040516106379493929190610f93565b5f546001600160a01b031633146103305760405163118cdaa760e01b81523360048201526024016103d4565b5f80546001600160a01b038381166001600160a01b0319831681178455604051919092169283917f8be0079c531659141344cd1fd0a4f28419497f9722a3daafe3b4186f6b6457e09190a35050565b80356001600160a01b0381168114610bfd575f80fd5b919050565b5f60208284031215610c12575f80fd5b610c1b82610be7565b9392505050565b5f8060408385031215610c33575f80fd5b610c3c83610be7565b915060208301358015158114610c50575f80fd5b809150509250929050565b5f60208284031215610c6b575f80fd5b5035919050565b5f805f8060608587031215610c85575f80fd5b610c8e85610be7565b935060208501359250604085013567ffffffffffffffff80821115610cb1575f80fd5b818701915087601f830112610cc4575f80fd5b813581811115610cd2575f80fd5b886020828501011115610ce3575f80fd5b95989497505060200194505050565b5f8060408385031215610d03575f80fd5b610d0c83610be7565b946020939093013593505050565b5f81518084525f5b81811015610d3e57602081850181015186830182015201610d22565b505f602082860101526020601f19601f83011685010191505092915050565b60208152815160208201525f602083015160606040840152610d826080840182610d1a565b9050604084015160608401528091505092915050565b838152606060208201525f610db06060830185610d1a565b9050826040830152949350505050565b634e487b7160e01b5f52601160045260245ffd5b5f600160ff1b8201610de857610de8610dc0565b505f0390565b8082018281125f831280158216821582161715610e0d57610e0d610dc0565b505092915050565b8181035f831280158383131683831282161715610e3457610e34610dc0565b5092915050565b634e487b7160e01b5f52604160045260245ffd5b600181811c90821680610e6357607f821691505b602082108103610e8157634e487b7160e01b5f52602260045260245ffd5b50919050565b601f821115610ece57805f5260205f20601f840160051c81016020851015610eac5750805b601f840160051c820191505b81811015610ecb575f8155600101610eb8565b50505b505050565b815167ffffffffffffffff811115610eed57610eed610e3b565b610f0181610efb8454610e4f565b84610e87565b602080601f831160018114610f34575f8415610f1d5750858301515b5f19600386901b1c1916600185901b178555610f8b565b5f85815260208120601f198616915b82811015610f6257888601518255948401946001909101908401610f43565b5085821015610f7f57878501515f19600388901b60f8161c191681555b505060018460011b0185555b505050505050565b84815260606020820152826060820152828460808301375f608084830101525f6080601f19601f860116830101905082604083015295945050505050565b634e487b7160e01b5f52603260045260245ffdfea2646970667358221220d3e7a8504752a7992b9d4c064dda640a9e29cb32df88c26f80d46c273684b13b64736f6c63430008180033",
  "linkReferences": {},
  "deployedLinkReferences": {}
}